:03020000020206F1
:03025F0002020395
:030203000227943B
:0400000002020032C6
:01000B0032C2
:0100130032BA
:01001B0032B2
:0100230032AA
:01002B0032A2
:01003300329A
:01003B003292
:01004300328A
:01004B003282
:01005300327A
:01005B003272
:01006300326A
:0101000032CC
:0101040032C8
:0101080032C4
:01010C0032C0
:0101100032BC
:0101140032B8
:0101180032B4
:0101200032AC
:0101240032A8
:0101280032A4
:01012C0032A0
:01013000329C
:010134003298
:010138003294
:01013C003290
:01014000328C
:010148003284
:01014C003280
:01015000327C
:010154003278
:010158003274
:01015C003270
:01016000326C
:01017000325C
:010174003258
:010178003254
:01017C003250
:01018000324C
:010184003248
:010188003244
:01018C003240
:01019000323C
:010194003238
:010198003234
:01019C003230
:0101A000322C
:0101A8003224
:0101AC003220
:0101B000321C
:0101B4003218
:0101B8003214
:2002620022AE82AF837C007D00C3EC9EED9F50147AB07B041ABAFF011BEA4B70F70CBC00C6
:20028200E80D80E522AE82AF837C007D00C3EC9EED9F50147A0A7B001ABAFF011BEA4B70B5
:2002A200F70CBC00E80D80E52275AF0790E67BE090E67CF0DAF322227F00BFFF00500B90EA
:2002C200E678E0FE20E0030F80F090E678E0FF20E204EF20E10D90E678E0FF74404FF07559
:2002E200820122758200227F00BFFF00500B90E678E0FE20E0030F80F090E678E0FF30E279
:200302000D90E678E0FF74404FF075820122758200227F0090E678E0FE20E2047582002271
:200322000FBFFF0040EE758201227F0090E678E0FE20E604758200220FBFFF0040EE758246
:200342000122AF82C3E49508E433FE90E678E0FD74804DF0C007C006120314D006D00790FF
:20036200E679EFF0C007C0061202BAE582D006D0077014E509600C90E678E0FD74404DF034
:2003820012032C75820022EE601090000AC007C006120287D006D00780B1E509600990E636
:2003A20078E0FF74404FF075820122AE82AF837D00E50C7003F582227508647509007582A5
:2003C200A2C007C006C005120344E582D005D006D00760030204BCAC0B90E679ECF0C00777
:2003E200C006C0051202BAE582D005D006D00760030204BC90E679E50AF0C007C006C00574
:200402001202BAE582D005D006D00760030204BC90E678E0FC74404CF0C007C006C00512E0
:20042200032C90E678E0FC74804CF012031490E67974A3F01202BAE582D005D006D007704B
:200442007990E679E08E828F83F0C007C006C0051202E9E582D005D006D007705DFCC3EC90
:20046200950C502A90E679E08E828F83F0A3AE82AF83C007C006C005C0041202E9E582D02F
:2004820004D005D006D00770310C8C0580D090E678E0FF74204FF090E679E0C0051202E915
:2004A200E582D005701490E678E0FF74404FF090E679E0C00512032CD0058D8222AE82AF00
:2004C200837D00E50F7003F582227508647509007582A2C007C006C005120344E582D0053B
:2004E200D006D0076003020581AC0E90E679ECF0C007C006C0051202BAE582D005D006D0DB
:2005020007600302058190E679E50DF0C007C006C0051202BAE582D005D006D0077060FC41
:20052200C3EC950F50498E828F83E090E679F08E828F83E0FBA3AE82AF83903A04E02BF021
:20054200903A02E0FAA3E0FB903A0274012AF0E43BA3F0C007C006C005C0041202BAE5821D
:20056200D004D005D006D00770150C8C0580B190E678E0FF74404FF0C00512032CD0058DA8
:200582008222903A31E0FF903A00E0F50AA3E0F50B8F0C90E740C0071203ADAE82D0077D50
:2005A20000903A00E0FBA3E0FC903A00EF2BF0ED3CA3F08E8222AF82903A00E0F50DA3E0F3
:2005C200F50E8F0F90E740C0071204BFD0077E00903A00E0FCA3E0FD903A00EF2CF0EE3DAA
:2005E200A3F022AE82AF837D00E5117003F582227508647509007582A6C007C006C0051203
:200602000344E582D005D006D00760030206D790E679E510F0C007C006C0051202BAE5820B
:20062200D005D006D00760030206D790E678E0FC74404CF0C007C006C00512032C90E678B9
:20064200E0FC74804CF012031490E67974A7F01202BAE582D005D006D007707990E679E0FA
:200662008E828F83F0C007C006C0051202E9E582D005D006D007705DFCC3EC9511502A9006
:20068200E679E08E828F83F0A3AE82AF83C007C006C005C0041202E9E582D004D005D00609
:2006A200D00770310C8C0580D090E678E0FF74204FF090E679E0C0051202E9E582D00570F6
:2006C2001490E678E0FF74404FF090E679E0C00512032CD0058D8222AE82AF837D00E51392
:2006E2007003F582227508647509007582A6C007C006C005120344E582D005D006D00760FC
:20070200030207CD90E679E512F0C007C006C0051202BAE582D005D006D00760030207CDE6
:20072200AC127B00C3EB951340030207BD8E828F83E0FAA3AE82AF8390E679EAF0C007C0CE
:2007420006C005C004C0031202BAE582D003D004D005D006D00770730C8C120B8B05EC20B3
:20076200E3C2C3EB951350BC90E678E0FA74404AF0C007C006C005C004C00312032C750823
:20078200647509007582A6120344E582D003D004D005D006D007703390E679ECF0C007C0FA
:2007A20006C005C004C0031202BAE582D003D004D005D006D007701302072690E678E0FF08
:2007C20074404FF0C00512032CD005903A05E512F08D8222903A31E0FF903A05E0F5108F45
:2007E2001190E740C0071205E5AE82D007903A05E02FF08E8222AA82D2A600C2A6DAF92264
:20080200A2A4D2A633C2A6A2A4D2A633C2A6A2A4D2A633C2A6A2A4D2A633C2A6A2A4D2A6B4
:2008220033C2A6A2A4D2A633C2A6A2A4D2A633C2A6A2A4D2A633C2A6F5822275820022AAB4
:2008420015A2A4D2A633C2A6A2A4D2A633C2A6A2A4D2A633C2A6A2A4D2A633C2A6A2A4D205
:20086200A633C2A6A2A4D2A633C2A6A2A4D2A633C2A6A2A4D2A633C2A6F0A3DAC422E58270
:200882003392A7D2A633C2A692A7D2A633C2A692A7D2A633C2A692A7D2A633C2A692A7D2E8
:2008A200A633C2A692A7D2A633C2A692A7D2A633C2A692A7D2A600C2A622AA15E03392A717
:2008C200D2A633C2A692A7D2A633C2A692A7D2A633C2A692A7D2A633C2A692A7D2A633C279
:2008E200A692A7D2A633C2A692A7D2A633C2A692A7D2A6A3C2A6DAC422903A0E7403F043BA
:20090200A0807E007F00C007C006120802AD82D006D007BDFF0280208E028F037C007D00BA
:20092200C3EA94FFEB94FFEC9400ED6480948050070EBE00D10F80CEE5A030E409903A0EC7
:20094200E4F0758200227582012243A0207582081207F8AFA074DF5FF5A00208FB43A0807D
:200962007582081207F843A0207582080207F843A0807A55120802E58230E702DAF6903AFA
:2009820010F0F582227582002243A0807E007F00C007C006120802AD82D006D007BDFE0201
:2009A200800D0EBE00010FEE4F70E57582012275820022AC82AD83AEF0FFE5A020E5047509
:2009C200820422C007C006C005C00412094CE582D004D005D006D007600712095F75820358
:2009E20022758208C007C006C005C0041207F8D004D005D006D007903A0F7412F0903A122C
:200A02007452F0903A11E0FB7028EC2CFCED33FDEE33FEEF33FF8E03903A13EBF08D0390F6
:200A22003A14EBF08C03903A15EBF0903A16E4F0801A8F03903A13EBF08E03903A14EBF060
:200A42008D03903A15EBF0903A16ECF0903A177401F0751506903A121208BC120971903AB0
:200A620010E0FF600712095F7582012212098BE582600712095F7582022275820022758271
:200A8200101207F812098BE582600712095F7582022275820022AE82AF83C374209EE49F37
:200AA2005018758200C007C0061207F8D006D007EE24E0FEEF34FFFF80E0EE4F600AEEC4C0
:200AC2000354F8F5821207F87582101207F87582081207F8903A0F740CF0903A12744CF040
:200AE200903A13E4F0903A14F0903A15F0903A16F0903A1704F0751506903A121208BC12AD
:200B020009717582081207F802095FAC82AD83AEF0FFE5A020E50475820422C007C006C0EC
:200B220005C00412094CE582D004D005D006D007600712095F75820322758208C007C0063D
:200B4200C005C0041207F8D004D005D006D007903A0F7419F0903A127459F0903A11E0FBFE
:200B62007028EC2CFCED33FDEE33FEEF33FF8E03903A13EBF08D03903A14EBF08C03903A7F
:200B820015EBF0903A16E4F0801A8F03903A13EBF08E03903A14EBF08D03903A15EBF090A7
:200BA2003A16ECF0903A177401F0751506903A121208BC120971903A10E0FF600712095F59
:200BC2007582012243A0807582081207F87582FC12088075820022AE82AF83ADA0747F5DE1
:200BE200F5A0C374209EE49F5018758200C007C0061207F8D006D007EE24E0FEEF34FFFF2B
:200C020080E0EE4F600AEEC40354F8F5821207F843A0807582101207F8120802E582540FE1
:200C2200FFBF05028047903A0E7406F07582081207F8903A0F740CF0903A12744CF0903A35
:200C420013E4F0903A14F0903A15F0903A16F0903A1704F0751506903A121208BC1209719B
:200C62007582081207F812095F75820622758200221208FB7582FD1208807582081207F8FD
:200C820002095F1208FB7582FC020880903A077401F0903A08E4F07402A3F0903A11E4F0C2
:200CA20043B4E0AFB474EF5FF5B443A08043A0207582001207F812094C903A0E7403F07504
:200CC20082081207F8903A0FE4F0903A127440F0903A13E4F0903A14F0903A15F0903A161C
:200CE200F0903A177495F0751506903A121208BC120971903A10E0FF7E0054FE7003EE6010
:200D02004B9000321202637582081207F8903A0FE4F0903A127440F0903A13E4F0903A1481
:200D2200F0903A15F0903A16F0903A177495F0751506903A121208BC120971903A10E0FFC1
:200D42007E0054FE7003EE600302112C7582081207F8903A0F7408F0903A127448F0903A17
:200D620013E4F0903A14F0903A1504F0903A1674AAF0903A177487F0751506903A121208A9
:200D8200BC120971903A10E0FF20E235EF54FE600302112C751504903A12120841903A1493
:200DA200E0FF53070FBF010A903A15E0FFBFAA028009903A0E7407F0021132903A11740195
:200DC200F0903A11E0FF60027440FF758208C0071207F8903A0F7437F0903A127477F090C0
:200DE2003A13E4F0903A14F0903A15F0903A16F0903A1704F0751506903A121208BC120931
:200E020071D007903A10E0FE54FE703D758208C0071207F8D007903A0F7429F0903A12746D
:200E220069F0903A13EFF0903A14E4F0903A15F0903A16F0903A1704F0751506903A12C049
:200E4200071208BC120971D007903A10E0FE5306FE7D00903A10E0FCBC0003020F52BDFF30
:200E6200004003020F52900004C007C006C005120263D005D006D007EE6050758208C00787
:200E8200C006C0051207F8D005D006D007903A0F7401F0903A127441F0903A13EFF0903AED
:200EA20014E4F0903A15F0903A16F0903A1714F0751506903A12C007C006C0051208BC121E
:200EC2000971D005D006D007020F4E758208C007C006C0051207F8903A0F7437F0903A1203
:200EE2007477F0903A13E4F0903A14F0903A15F0903A16F0903A1704F0751506903A1212A4
:200F020008BC1209717582081207F8D005D006D007903A0F7429F0903A127469F0903A1301
:200F2200EFF0903A14E4F0903A15F0903A16F0903A1704F0751506903A12C007C006C005EC
:200F42001208BC120971D005D006D0070D020E55903A10E0FF600302112C903A11E0FF60C4
:200F6200547582081207F8903A0F743AF0903A12747AF0903A13E4F0903A14F0903A15F08C
:200F8200903A16F0903A1704F0751506903A121208BC120971903A10E0FF600302112C750C
:200FA2001504903A12120841903A12E0FF20E605903A11E4F07582081207F8903A0F740904
:200FC200F0903A127449F0903A13E4F0903A14F0903A15F0903A16F0903A1704F075150613
:200FE200903A121208BC12097112098BE5826009903A0E7402F0021132751510903A121230
:2010020008417582101207F8903A12E054C0FFF0E0FEEF54C0600302109E903A17E0FF53A7
:20102200070F903A1CE0235401FD903A1BE0540325E04D2F24F9FF903A1AE023235403FD46
:20104200903A19E0FCE4CC25E0CC33CC25E0CC33FB7A00ED4204EA4203903A18E05403FD5E
:201062002D25E0FAE4FD4204EA42030CBC00010BEB3395E0FDFA8FF005F0800CEC2CFCEB8F
:2010820033FBED33FDEA33FAD5F0F1903A0AECF0EBA3F0EDA3F0EAA3F00211245306C0BEFD
:2010A2004078903A19E0FF53073F7E008E048F057E007F00903A1AE0FA7B008B00EAF933A0
:2010C20095E0FAFBE84207E94206EA4205EB4204903A1BE0F8E4F9FAFBE84207E94206EA05
:2010E2004205EB42040FBF00090EBE00050DBD00010CEE2ECD33CD25E0CD33FCEF2F25E0EA
:20110200FEEF232354034DFD7F00903A0AEFF0EEA3F0EDA3F0ECA3F08008903A0E7407F07C
:20112200800E903A0EE4F002095F903A0E7401F0903A07E4F002095F903A22E0FF604F90B3
:201142003A22E4F012098BE5826043903A0E7402F07582081207F8903A0F740CF0903A123A
:20116200744CF0903A13E4F0903A14F0903A15F0903A16F0903A1704F0751506903A12124C
:2011820008BC1209717582081207F802095F903A31E0F51590E740120841903A2FE0FEA312
:2011A200E0FF4E70437582101207F87582081207F8903A0F740CF0903A12744CF0903A1373
:2011C200E4F0903A14F0903A15F0903A16F0903A1704F0751506903A121208BC12097175B4
:2011E20082081207F802095FEE7004EF30E001227582101207F8903A227401F022903A22ED
:20120200E0FF600E903A22E4F01208FB7582FC120880903A31E0F51590E7401208BC903AE1
:201222002FE0FEA3E0FFEE7004EF30E0012243A0807582101207F8120802E582540FFFBF7A
:2012420005028043903A0E7406F07582081207F8903A0F740CF0903A12744CF0903A13E4DA
:20126200F0903A14F0903A15F0903A16F0903A1704F0751506903A121208BC120971758275
:20128200081207F812095F903A2FE0FEA3E0FF4E6007903A227401F0221208FB7582FD121D
:2012A20008807582081207F802095FAF8290E6017480F00000000090E670E4F090E671F00D
:2012C200AEB474F95EF5B475B2B674904FF58043B408AEA074F75EF5A090000AC007120271
:2012E20063D00774024FF5807E007F0020A2208E028F037C007D00C3EA94FFEB94FFEC9440
:2013020000ED6480948050070EBE00E00F80DD30A2047FC880027F64903A28EFF0903A2436
:20132200E4F0A3F0A3F0A3F0903A23F0227582040212AD7582340212AD02132FD287C2A078
:2013420043B28890E6A3E0FF74FE5FF090E60B7403F00000000090E60174A3F000000000EF
:2013620090E6047480F00000000090E6047402F00000000090E604E4F00000000090E61851
:201382007408F00000000090E6207402F00000000090E621E4F00000000090E6047480F01A
:2013A2000000000090E6047406F00000000090E604E4F00000000090E6497486F000000050
:2013C2000090E6497486F00000000090E6497486F00000000090E6497486F090E61A7410FC
:2013E200F00000000090E609E4F00000000090E60274ACF00000000090E603E4F0000000D3
:2014020000C2872230A2047F1680027F0B903A28E0FE2FF07F00D284C2840FBF400040F69A
:20142200D287D284C284D284C284D284C284D284C28475B200AFB474F75FF5B4308105D25C
:201442008112133ED28143B2022285B31475B3FF903A31E0FE903A24E0FAA3E0FBA3E0FC29
:20146200A3E0FD8E0079007E007F00903A24E82AF0E93BA3F0EE3CA3F0EF3DA3F090E68BC2
:20148200E06022FA759B40759AE775AF07903A23E0F990E67BE0F590D28429F9C284DAF5D4
:2014A200903A23E9F08514B390E68BE0FFBF4000500302140622C0B3AD82AE83903A24E007
:2014C200F9A3E0FAA3E0FBA3E0FC903A24ED29F0EE3AA3F074003BA3F074003CA3F0BD00A6
:2014E2002DBE022A75B30053B2EFD2A653B4BF43B208C283D28353B2F77A0379E3D9FEDA5C
:20150200FAD28443B21043B440C2A6D0B32275B301BD0006BE0003D0B322A2A49290C28430
:20152200D284D2A6C2A6A2A49290C284D284D2A6C2A6A2A49290C284D284D2A6C2A6A2A465
:201542009290C284D284D2A6C2A6A2A49290C284D284D2A6C2A6A2A49290C284D284D2A68B
:20156200C2A6A2A49290C284D284D2A6C2A6A2A49290C284D284D2A6C2A61DBDFF931E802F
:201582009022E582FF7013AFB274FD5FF5B2308109D28143B20275820122121335900000CE
:2015A200E4F5F01209B5E5826004758202227E007F00C3EE9408EF94005025C007C00612C9
:2015C2000802AD82D006D007EE249DF582EF3427F583E493FCEDB504070EBE00D50F80D219
:2015E200BE0805BF00028018903A08E0FCA3E0FDECC39EF582ED9FF583120A9875820322FF
:20160200120802AE827F00C007C006120802AD82D006D0078D04E44206EC4207C007C006F9
:20162200120802AC827D00C005C004120802AB82D004D0058B02E44204EA4205903A08E0CC
:20164200FAA3E0FBEA24F4F582EB34FFF583C005C004120A98D004D005D006D007EE4F70C1
:201662000475820322900001E4F5F0C007C006C005C0041209B5E582D004D005D006D0074B
:201682006004758202227A017B00C3EA9EEB9F5039903A08E0F8A3E0F988828983C007C0B2
:2016A20006C005C004C003C0021214B8120A80E582D002D003D004D005D006D0076004755F
:2016C2008202220ABA00C30B80C08C828D83C005C0041214B8D004D005903A08E0FEA3E02F
:2016E200FFEEC39CF582EF9DF583120A98121406AFB274FD5FF5B2308109D28143B20275F0
:20170200820022D28143B20275820422900000E4F5F01209B57F00BF08005016C007120806
:2017220002AE82D007EF90279D93FDEEB505030F80E5BF0802801A7E00903A08E0FCA3E09A
:20174200FDECC39FF582ED9EF583120A9890000022120802AF82C007120802AE82903A082A
:20176200E0FCA3E0FDEC24F6F582ED34FFF583C006120A98D006D0078E05E4FEFCEF420627
:20178200EC42058E828D83A322903A07E0FF7007903A297402F022758200121584AF82902A
:1A17A2003A29EFF0BF010302133EBF040C758200121584E582903A29F022F8
:20006C0028015A5445580A0D00000001470000000000000000000000000000000000303041
:08008C003030303030303030EC
:2017BC002290E683E4F07420F003F07430F07401F07421F07411F07431F07412F07432F013
:2017DC007406F07426F022AF82E51624E0500375161F90E6BFE0701090E6BEE0FEC3951695
:2017FC00500690E6BEE0F51675AF078F9B85159A7E407FE7EE04F59E7E407FE70EBE000135
:20181C000F8F9D90E67C7403F07F00C3EF9516500E90E67BE0FE90E67CF0E4F00F80ECE5F9
:20183C00160425E0FF90E740F090E7417403F090E68AE4F090E68BEFF022903A2FE0FEA358
:20185C00E0FFC374409EE49F50067C407D0080048E048F05903A31ECF07D00903A2FEEC3BE
:20187C009CF0EF9DA3F022903A32E0FFBF31030219BFBF320122BF3902801FBF3C02803E6F
:20189C00BF42028042BF600280030219C2D28790E6BAE024FF92A0C28722903A04E4F0908B
:2018BC003A02F0A3F090E6BBE0FE7F0090E6BAE0FD7C00903A00ED4FF0EC4EA3F02290E6DB
:2018DC00BAE0903A05F022E5A020E517903A0E7404F090E6A0E0FF74014FF0903A2FE4F01A
:2018FC00A3F02212094CE582601412095F90E6A0E0FF74014FF0903A2FE4F0A3F022758239
:20191C00081207F8903A0F7419F0903A127459F0903A11E0FF7023C390E6BAE0903A153371
:20193C00F090E6BBE0903A1433F090E6BCE0903A1333F0903A16E4F0802190E6BDE0903A45
:20195C0013F090E6BCE0903A14F090E6BBE0903A15F090E6BAE0FF903A16F0903A17740173
:20197C00F0751506903A121208BC120971903A10E0FF601A903A0E7401F012095F90E6A08D
:20199C00E0FF74014FF0903A2FE4F0A3F02243A0807582081207F87582FC120880903A222A
:2019BC00E4F02202133B90E6A0E0FF74014FF022C020C0E0C0F0C082C083C007C006C005F3
:2019DC00C004C003C002C001C000C0D075D00090E6B9E0FF903A32F090E6B57401F090E64C
:2019FC00B9E0FF24F35003021D9DEFF5F0240B83F582E5F0241183F583E47331E59D659DFF
:201A1C009D0032344449595E1A1A1D1B1D1D1C1D1D1D1D1D1D90E6B8E0FFBF8002800DBF59
:201A3C008102801EBF8202802F021D9D90E740E4F090E741F090E68AF090E68B7402F0022F
:201A5C001D9D90E740E4F090E741F090E68AF090E68B7402F0021D9D90E6BCE0FF600FBF2B
:201A7C0001028019BF80028005BF812F801E90E6A0E0FF53070190E740EFF0803A90E6A124
:201A9C00E0FF53070190E740EFF0802B90E6A2E0FF53070190E740EFF0801C90E6BCE0C356
:201ABC001314540324A3F582E434E6F583E0FF53070190E740EFF090E741E4F090E68AF08C
:201ADC0090E68B7402F0021D9D90E6B8E0FFBF02028003021D9D90E6BAE06003021D9D90F9
:201AFC00E6BCE0FF600FBF01028016BF80028005BF8126801890E6A0E0FF74FE5FF0021DE9
:201B1C009D90E6A1E0FF74FE5FF0021D9D90E6A2E0FF74FE5FF0021D9D90E6BCE0C3131429
:201B3C00540324A3FEE434E6FF90E6BCE0C31314540324A3F582E434E6F583E0FD5305FE36
:201B5C008E828F83EDF0021D9D90E6B8E0FFBF02028003021D9D90E6BAE06003021D9D90E0
:201B7C00E6BCE0FF600FBF01028015BF80028005BF8123801690E6A0E0FF74014FF08043D7
:201B9C0090E6A1E0FF74014FF0803890E6A2E0FF74014FF0802D90E6BCE0C31314540324F8
:201BBC00A3FEE434E6FF90E6BCE0C31314540324A3F582E434E6F583E0FD4305FE8E828FA2
:201BDC0083EDF090E6BCE05480C423541FFF90E6BCE0FE740F5E420790E683EFF074204F55
:201BFC00F0021D9D90E6BBE0FFBF01028019BF02028028BF03028053BF0603021CE4BF0720
:201C1C0003021CF8021D277EC87F278F0690E6B3EEF090E6B474C8F0021D9D90E680E0FFDA
:201C3C0030E7147EE47F278F0690E6B3EEF090E6B474E4F0021D9D7E147F288F0690E6B394
:201C5C00EEF090E6B47414F0021D9D90E6BAE0FFBF0102800FBF0202801EBF0302802DBF3B
:201C7C000452803C7582A57EA57F278F068E157516051217E3021D9D7582AA7EAA7F278F43
:201C9C00068E157516161217E3021D9D75828A7E8A7F008F068E1575160A1217E3021D9D79
:201CBC007582C07EC07F278F068E157516081217E3021D9D7E447F288F0690E6B3EEF09045
:201CDC00E6B47444F0021D9D7EDA7F278F0690E6B3EEF090E6B474DAF0021D9D90E680E056
:201CFC00FF30E7147E147F288F0690E6B3EEF090E6B47414F0021D9D7EE47F278F0690E658
:201D1C00B3EEF090E6B474E4F0807690E6A0E0FF74014FF0806B806990E740E4F090E68AA6
:201D3C00F090E68B04F080591217BD805490E740E4F090E68AF090E68B04F080441217BDF5
:201D5C00803F90E6B8E0FFBF823790E6BCE0C31314540375F002A42434F582743A35F0F52E
:201D7C0083E4F0A3F090E685E090E740F090E684E0FF90E741F090E68AE4F090E68B74020F
:201D9C00F090E6B8E0FFBF40030220D5BFC002800302210390E6BFE0FE7F0090E6BEE0FD64
:201DBC007C00903A2FED4FF0EC4EA3F012185690E6B9E0FFBF22028031BF3003022079BF2B
:201DDC0038028043BF3A028067BF3B03021E8BBF3D03021EA4BF4003021EC4BF4103021E94
:201DFC00F1BF4303021FF20220CA90E6B5E4F090E68AF090E68B7428F090E6B3E4F090E6E3
:201E1C00B4746CF002210390E6BBE0FE7F0090E6BAE0FD7C00903A00ED4FF0EC4EA3F09092
:201E3C00E68AE4F0120584E58290E68BF0022103903A02E0FEA3E090E740EEF0903A02E0BB
:201E5C00A3E090E741F0903A04E090E742F07508007509017582A2120344AF8290E743EF1C
:201E7C00F090E68AE4F090E68B7404F002210390E6BAE0903A05F090E68AE4F01207D6E57C
:201E9C008290E68BF00221037508007509017582A6120344AF8290E740EFF090E68AE4F000
:201EBC0090E68B04F0022103759B077E077F3A8F068E9A759E407E407FE78F068E9DC002E0
:201EDC007A081202ABD00290E68AE4F090E68B7408F0022103E5A020E519903A0E7404F089
:201EFC0090E6A0E0FF74014FF0903A2FE4F0A3F002210312094CE582601612095F90E6A0C3
:201F1C00E0FF74014FF0903A2FE4F0A3F00221037582081207F8903A0F7412F0903A1274DD
:201F3C0052F0903A11E0FF7023C390E6BAE0903A1533F090E6BBE0903A1433F090E6BCE0FD
:201F5C00903A1333F0903A16E4F0802190E6BDE0903A13F090E6BCE0903A14F090E6BBE03F
:201F7C00903A15F090E6BAE0FF903A16F0903A177401F0751506903A121208BC12097190F3
:201F9C003A10E0FF601C903A0E7401F012095F90E6A0E0FF74014FF0903A2FE4F0A3F002BE
:201FBC002103903A227401F012113A903A0EE0FF601390E6A0E0FF74014FF0903A2FE4F093
:201FDC00A3F002210390E68AE4F0903A31E0FF90E68BF0022103759B0E7E0E7F3A8F068EE1
:201FFC009A759E427E427FE78F068E9DC0027A141202ABD002741055A0FFE4BF000104905F
:20201C00E756F012094C7582081207F8903A0F740DF0903A12744DF0903A13E4F0903A149A
:20203C00F0903A15F0903A16F0903A1704F0751506903A121208BC120971903A10E090E721
:20205C0040F0120802AF8290E741EFF012095F90E68AE4F090E68B7417F0022103759B232D
:20207C007E237F3A8F068E9A759E417E417FE78F068E9DC0027A071202ABD002AFB274FD4E
:20209C005FF5B230810C90E740E4F0D28143B202800990E7407401F012132F90E74874015F
:2020BC00F090E68AE4F090E68B7409F0803990E6A0E0FF74014FF0802E90E6BFE0700690A7
:2020DC00E6BEE0601A903A337401F090E68BE4F0AF9174EF5FF59190E65D7401F0801E123F
:2020FC00188390E68BE4F0AF9174EF5FF59190E65D7401F090E6A0E0FF74804FF0D0D0D0FC
:20211C0000D001D002D003D004D005D006D007D083D082D0F0D0E0D02032C0E0C082C0837B
:20213C00C007C0D075D000AF9174EF5FF59190E65D7402F0D0D0D007D083D082D0E032C068
:20215C00E0C082C083C007C0D075D000AF9174EF5FF59190E65D7404F0D0D0D007D083D005
:20217C0082D0E032C0E0C082C083C007C0D075D000AF9174EF5FF59190E65D7408F0D0D0B7
:20219C00D007D083D082D0E032C0E0C082C083C007C0D075D000AF9174EF5FF59190E65DA9
:2021BC007410F0D0D0D007D083D082D0E032C0E0C082C083C007C0D075D000AF9174EF5FCE
:2021DC00F59190E65D7420F0D0D0D007D083D082D0E032C0E0C082C083C007C0D075D00047
:2021FC00AF9174EF5FF59190E65D7440F0D0D0D007D083D082D0E032C020C0E0C0F0C08254
:20221C00C083C007C006C005C004C003C002C001C000C0D075D000C2E8121856903A32E068
:20223C00FFBF30030222C9BF38028020BF3A030222C9BF3B028025BF3D030222C9BF400294
:20225C00806BBF41028025BF435A806190E68AE4F0120584E58290E68BF0805190E68AE417
:20227C00F01207D6E58290E68BF08041903A31E0FF6021903A0EE4F012113A903A0EE0FF2F
:20229C00601290E6A0E0FF74014FF0903A2FE4F0A3F0801990E68AE4F0903A31E0FF90E6EA
:2022BC008BF0800990E68AE4F090E68BF0AF9174EF5FF59190E65F7401F0D2E8D0D0D0004D
:2022DC00D001D002D003D004D005D006D007D083D082D0F0D0E0D02032C020C0E0C0F0C0EF
:2022FC0082C083C007C006C005C004C003C002C001C000C0D075D000C2E8903A33E0FF6026
:20231C0020903A33E4F090E6BFE0FE7F0090E6BEE0FD7C00903A2FED4FF0EC4EA3F0121875
:20233C0083121856903A32E0FFBF31028064BF3202805CBF39028010BF3C028016BF4202DE
:20235C008025BF604D00804A90E68BE0F5821205B8803F903A05E0F51290E68BE0F5139071
:20237C00E7401206DA802B903A31E0FF6024903A0EE4F01211FF903A0EE0FF601590E6A00F
:20239C00E0FF74014FF0903A2FE4F0A3F0800312144C90E68BE4F0AF9174EF5FF59190E666
:2023BC005F7402F0903A2FE0FEA3E0FF4E700990E6A0E0FF74804FF0D2E8D0D0D000D001F9
:2023DC00D002D003D004D005D006D007D083D082D0F0D0E0D02032C0E0C082C083C007C003
:2023FC00D075D000AF9174EF5FF59190E65F7404F0D0D0D007D083D082D0E032C0E0C08207
:20241C00C083C007C0D075D000AF9174EF5FF59190E65F7408F0D0D0D007D083D082D0E02C
:20243C0032C0E0C082C083C007C0D075D000AF9174EF5FF59190E65F7410F0D0D0D007D075
:20245C0083D082D0E032C0E0C082C083C007C0D075D000AF9174EF5FF59190E65F7420F007
:20247C00D0D0D007D083D082D0E032C0E0C082C083C007C0D075D000AF9174EF5FF5919069
:20249C00E65F7440F0D0D0D007D083D082D0E032C0E0C082C083C007C0D075D000AF9174C4
:2024BC00EF5FF59190E65F7480F0D0D0D007D083D082D0E032751000751103903A2A12055C
:2024DC00E5903A2AE0FFBF4324903A2BE0FFBF441C903A2CE0FFBF3014903A067401F0758D
:2024FC00101075110A90008A1205E58005903A06E4F07F00EF248AF582E43400F583E0FED0
:20251C00BE30550FBF0A0040EB7510FB751105903A2A1205E57F007E00EE242AF582E43496
:20253C003AF583E0FDEF248AFBE43400FCEDC4540F90284893FA8B828C83F00FEF248AFBF0
:20255C00E43400FC740F5D90284893FD8B828C83F00F0EBE050040C12290E680E0FF74087B
:20257C004FF090E6007412F0900002120263AF8E74F85FF58ED28143B202903A2974FFF0E0
:20259C00C2AFC2E89000437402F090004414F090004574B8F090E668E0FF74084FF09001F9
:2025BC00007402F07ECC7F198F05900101EDF0900102EEF09001047402F07E367F218F0560
:2025DC00900105EDF0900106EEF09001087402F07E5B7F218F05900109EDF090010AEEF0FB
:2025FC0090010C7402F07E807F218F0590010DEDF090010EEEF09001107402F07EA57F21C8
:20261C008F05900111EDF0900112EEF09001147402F07ECA7F218F05900115EDF090011659
:20263C00EEF09001187402F07EEF7F218F05900119EDF090011AEEF09001207402F07E1437
:20265C007F228F05900121EDF0900122EEF09001247402F07EF57F228F05900125EDF09023
:20267C000126EEF09001287402F07EF37F238F05900129EDF090012AEEF090012C7402F020
:20269C007E187F248F0590012DEDF090012EEEF09001307402F07E3D7F248F05900131ED51
:2026BC00F0900132EEF09001347402F07E627F248F05900135EDF0900136EEF090013874A6
:2026DC0002F07E877F248F05900139EDF090013AEEF090013C7402F07EAC7F248F0590013B
:2026FC003DEDF090013EEEF0AF9174EF5FF59190E65D747FF090E65CE0FF747F4FF090E660
:20271C005F74FFF090E65EF0D2E8D2AF90E61174A0F00000000090E61074A0F000000000C7
:20273C0090E61274E0F00000000090E613E4F00000000090E61474A0F00000000090E6153B
:20275C00E4F000000000120C8E903A07E0FF70099000FA120263120C8E1224D112178B90BC
:1D277C00E680E0FF74824FF090000A12026390E680E0FF74F75FF02212257580FEDA
:20279D005A544558425301015A544558004F70656E41444320666F722055464D20312E3176
:2027BD0035610064656661756C740012010002FFFFFF401A2200010000010203010A0600DB
:2027DD0002FFFFFF40010009022E00010104C0320904000004FFFFFF0007058102000200CC
:2027FD00070501020002000705820200020007050602000200000009022E00010104C032D2
:20281D000904000004FFFFFF00070581024000000705010240000007058202400000070593
:20283D0006024000000000040300003031323334353637383941424344454600000000FF8B
:09285D0000000000000000000072
:06023500E478FFF6D8FD9D
:20021300790DE94400601B7A01902859782F75923AE493F2A308B800020592D9F4DAF275B6
:0202330092FF38
:20023B007800E84400600A790075923AE4F309D8FC782FE84400600C7901903A00E4F0A32D
:04025B00D8FCD9FAF8
:0D020600758120122799E582600302020332
:042799007582002223
:00000001FF
